{
  "contractName": "CertChain",
  "abi": [
    {
      "anonymous": false,
      "inputs": [
        {
          "indexed": true,
          "internalType": "uint256",
          "name": "certificate",
          "type": "uint256"
        },
        {
          "indexed": true,
          "internalType": "address",
          "name": "issuer",
          "type": "address"
        },
        {
          "indexed": true,
          "internalType": "address",
          "name": "recipient",
          "type": "address"
        }
      ],
      "name": "CertificateIssued",
      "type": "event"
    },
    {
      "anonymous": false,
      "inputs": [
        {
          "indexed": true,
          "internalType": "address",
          "name": "issuer",
          "type": "address"
        },
        {
          "indexed": false,
          "internalType": "string",
          "name": "IPFS_hash",
          "type": "string"
        }
      ],
      "name": "CertificateRegistered",
      "type": "event"
    },
    {
      "anonymous": false,
      "inputs": [
        {
          "indexed": true,
          "internalType": "address",
          "name": "issuer",
          "type": "address"
        },
        {
          "indexed": false,
          "internalType": "string",
          "name": "IPFS_hash",
          "type": "string"
        }
      ],
      "name": "IssuerRegistered",
      "type": "event"
    },
    {
      "anonymous": false,
      "inputs": [
        {
          "indexed": true,
          "internalType": "address",
          "name": "recipient",
          "type": "address"
        },
        {
          "indexed": false,
          "internalType": "string",
          "name": "IPFS_hash",
          "type": "string"
        }
      ],
      "name": "RecipientRegistered",
      "type": "event"
    },
    {
      "constant": true,
      "inputs": [],
      "name": "certificate_counter",
      "outputs": [
        {
          "internalType": "uint256",
          "name": "",
          "type": "uint256"
        }
      ],
      "payable": false,
      "stateMutability": "view",
      "type": "function"
    },
    {
      "constant": false,
      "inputs": [
        {
          "internalType": "string",
          "name": "IPFS_hash",
          "type": "string"
        }
      ],
      "name": "registerIssuer",
      "outputs": [],
      "payable": false,
      "stateMutability": "nonpayable",
      "type": "function"
    },
    {
      "constant": false,
      "inputs": [
        {
          "internalType": "string",
          "name": "IPFS_hash",
          "type": "string"
        }
      ],
      "name": "registerRecipient",
      "outputs": [],
      "payable": false,
      "stateMutability": "nonpayable",
      "type": "function"
    },
    {
      "constant": false,
      "inputs": [
        {
          "internalType": "string",
          "name": "IPFS_hash",
          "type": "string"
        }
      ],
      "name": "registerCertificate",
      "outputs": [],
      "payable": false,
      "stateMutability": "nonpayable",
      "type": "function"
    },
    {
      "constant": false,
      "inputs": [
        {
          "internalType": "address",
          "name": "_recipient",
          "type": "address"
        },
        {
          "internalType": "string",
          "name": "certificate_hash",
          "type": "string"
        }
      ],
      "name": "issueCertificate",
      "outputs": [],
      "payable": false,
      "stateMutability": "nonpayable",
      "type": "function"
    },
    {
      "constant": true,
      "inputs": [
        {
          "internalType": "string",
          "name": "IPFS_hash",
          "type": "string"
        }
      ],
      "name": "getIssuerOfCertificate",
      "outputs": [
        {
          "internalType": "address",
          "name": "",
          "type": "address"
        }
      ],
      "payable": false,
      "stateMutability": "view",
      "type": "function"
    },
    {
      "constant": true,
      "inputs": [
        {
          "internalType": "address",
          "name": "_issuer",
          "type": "address"
        }
      ],
      "name": "getIssuer",
      "outputs": [
        {
          "internalType": "string",
          "name": "",
          "type": "string"
        }
      ],
      "payable": false,
      "stateMutability": "view",
      "type": "function"
    },
    {
      "constant": true,
      "inputs": [
        {
          "internalType": "address",
          "name": "_recipient",
          "type": "address"
        }
      ],
      "name": "getRecipient",
      "outputs": [
        {
          "internalType": "string",
          "name": "",
          "type": "string"
        }
      ],
      "payable": false,
      "stateMutability": "view",
      "type": "function"
    },
    {
      "constant": true,
      "inputs": [
        {
          "internalType": "string",
          "name": "IPFS_hash",
          "type": "string"
        }
      ],
      "name": "getAllRecipientOfCertificate",
      "outputs": [
        {
          "internalType": "address[]",
          "name": "",
          "type": "address[]"
        }
      ],
      "payable": false,
      "stateMutability": "view",
      "type": "function"
    },
    {
      "constant": true,
      "inputs": [
        {
          "internalType": "address",
          "name": "_recipient",
          "type": "address"
        }
      ],
      "name": "getRecipientCertificates",
      "outputs": [
        {
          "internalType": "uint256[]",
          "name": "",
          "type": "uint256[]"
        }
      ],
      "payable": false,
      "stateMutability": "view",
      "type": "function"
    },
    {
      "constant": true,
      "inputs": [
        {
          "internalType": "address",
          "name": "_issuer",
          "type": "address"
        }
      ],
      "name": "getIssuerCertificates",
      "outputs": [
        {
          "internalType": "uint256[]",
          "name": "",
          "type": "uint256[]"
        }
      ],
      "payable": false,
      "stateMutability": "view",
      "type": "function"
    },
    {
      "constant": true,
      "inputs": [
        {
          "internalType": "uint256",
          "name": "_id",
          "type": "uint256"
        }
      ],
      "name": "getCertificateIdentifier",
      "outputs": [
        {
          "internalType": "string",
          "name": "",
          "type": "string"
        },
        {
          "internalType": "uint256",
          "name": "",
          "type": "uint256"
        },
        {
          "internalType": "address",
          "name": "",
          "type": "address"
        },
        {
          "internalType": "address",
          "name": "",
          "type": "address"
        }
      ],
      "payable": false,
      "stateMutability": "view",
      "type": "function"
    },
    {
      "constant": true,
      "inputs": [
        {
          "internalType": "string",
          "name": "IPFS_hash",
          "type": "string"
        }
      ],
      "name": "checkValidCertificate",
      "outputs": [
        {
          "internalType": "string",
          "name": "",
          "type": "string"
        }
      ],
      "payable": false,
      "stateMutability": "view",
      "type": "function"
    },
    {
      "constant": true,
      "inputs": [
        {
          "internalType": "string",
          "name": "IPFS_hash",
          "type": "string"
        }
      ],
      "name": "FindRecipient",
      "outputs": [
        {
          "internalType": "string",
          "name": "",
          "type": "string"
        }
      ],
      "payable": false,
      "stateMutability": "view",
      "type": "function"
    },
    {
      "constant": true,
      "inputs": [
        {
          "internalType": "string",
          "name": "IPFS_hash",
          "type": "string"
        },
        {
          "internalType": "string",
          "name": "certificate_hash",
          "type": "string"
        }
      ],
      "name": "checkValidCombo",
      "outputs": [
        {
          "internalType": "string",
          "name": "",
          "type": "string"
        }
      ],
      "payable": false,
      "stateMutability": "view",
      "type": "function"
    }
  ],
  "bytecode": "0x608060405234801561001057600080fd5b50612879806100206000396000f3fe608060405234801561001057600080fd5b50600436106100f55760003560e01c80637a8ee24b11610097578063ca93954f11610066578063ca93954f146109cf578063dda9f46d14610a8a578063f267450714610b9a578063fef03da314610d65576100f5565b80637a8ee24b1461068e578063923e7f6714610727578063b77160071461085b578063bb721aab146108f4576100f5565b806362812a39116100d357806362812a39146103e4578063632d9ce4146104a15780636f4581dc146105b557806370b09e2414610670576100f5565b80634dd6143a146100fa57806351eeb5511461022e57806355ff0e76146102e9575b600080fd5b6101b36004803603602081101561011057600080fd5b810190808035906020019064010000000081111561012d57600080fd5b82018360208201111561013f57600080fd5b8035906020019184600183028401116401000000008311171561016157600080fd5b91908080601f016020809104026020016040519081016040528093929190818152602001838380828437600081840152601f19601f820116905080830192505050505050509192919290505050610e22565b6040518080602001828103825283818151815260200191508051906020019080838360005b838110156101f35780820151818401526020810190506101d8565b50505050905090810190601f1680156102205780820380516001836020036101000a031916815260200191505b509250505060405180910390f35b6102e76004803603602081101561024457600080fd5b810190808035906020019064010000000081111561026157600080fd5b82018360208201111561027357600080fd5b8035906020019184600183028401116401000000008311171561029557600080fd5b91908080601f016020809104026020016040519081016040528093929190818152602001838380828437600081840152601f19601f820116905080830192505050505050509192919290505050610f1b565b005b6103a2600480360360208110156102ff57600080fd5b810190808035906020019064010000000081111561031c57600080fd5b82018360208201111561032e57600080fd5b8035906020019184600183028401116401000000008311171561035057600080fd5b91908080601f016020809104026020016040519081016040528093929190818152602001838380828437600081840152601f19601f820116905080830192505050505050509192919290505050611122565b604051808273ffffffffffffffffffffffffffffffffffffffff1673ffffffffffffffffffffffffffffffffffffffff16815260200191505060405180910390f35b610426600480360360208110156103fa57600080fd5b81019080803573ffffffffffffffffffffffffffffffffffffffff1690602001909291905050506111b5565b6040518080602001828103825283818151815260200191508051906020019080838360005b8381101561046657808201518184015260208101905061044b565b50505050905090810190601f1680156104935780820380516001836020036101000a031916815260200191505b509250505060405180910390f35b6104cd600480360360208110156104b757600080fd5b8101908080359060200190929190505050611296565b60405180806020018581526020018473ffffffffffffffffffffffffffffffffffffffff1673ffffffffffffffffffffffffffffffffffffffff1681526020018373ffffffffffffffffffffffffffffffffffffffff1673ffffffffffffffffffffffffffffffffffffffff168152602001828103825286818151815260200191508051906020019080838360005b8381101561057757808201518184015260208101905061055c565b50505050905090810190601f1680156105a45780820380516001836020036101000a031916815260200191505b509550505050505060405180910390f35b61066e600480360360208110156105cb57600080fd5b81019080803590602001906401000000008111156105e857600080fd5b8201836020820111156105fa57600080fd5b8035906020019184600183028401116401000000008311171561061c57600080fd5b91908080601f016020809104026020016040519081016040528093929190818152602001838380828437600081840152601f19601f820116905080830192505050505050509192919290505050611444565b005b61067861166c565b6040518082815260200191505060405180910390f35b6106d0600480360360208110156106a457600080fd5b81019080803573ffffffffffffffffffffffffffffffffffffffff169060200190929190505050611672565b6040518080602001828103825283818151815260200191508051906020019060200280838360005b838110156107135780820151818401526020810190506106f8565b505050509050019250505060405180910390f35b6107e06004803603602081101561073d57600080fd5b810190808035906020019064010000000081111561075a57600080fd5b82018360208201111561076c57600080fd5b8035906020019184600183028401116401000000008311171561078e57600080fd5b91908080601f016020809104026020016040519081016040528093929190818152602001838380828437600081840152601f19601f820116905080830192505050505050509192919290505050611709565b6040518080602001828103825283818151815260200191508051906020019080838360005b83811015610820578082015181840152602081019050610805565b50505050905090810190601f16801561084d5780820380516001836020036101000a031916815260200191505b509250505060405180910390f35b61089d6004803603602081101561087157600080fd5b81019080803573ffffffffffffffffffffffffffffffffffffffff169060200190929190505050611802565b6040518080602001828103825283818151815260200191508051906020019060200280838360005b838110156108e05780820151818401526020810190506108c5565b505050509050019250505060405180910390f35b6109cd6004803603604081101561090a57600080fd5b81019080803573ffffffffffffffffffffffffffffffffffffffff1690602001909291908035906020019064010000000081111561094757600080fd5b82018360208201111561095957600080fd5b8035906020019184600183028401116401000000008311171561097b57600080fd5b91908080601f016020809104026020016040519081016040528093929190818152602001838380828437600081840152601f19601f820116905080830192505050505050509192919290505050611899565b005b610a88600480360360208110156109e557600080fd5b8101908080359060200190640100000000811115610a0257600080fd5b820183602082011115610a1457600080fd5b80359060200191846001830284011164010000000083111715610a3657600080fd5b91908080601f016020809104026020016040519081016040528093929190818152602001838380828437600081840152601f19601f820116905080830192505050505050509192919290505050611ee3565b005b610b4360048036036020811015610aa057600080fd5b8101908080359060200190640100000000811115610abd57600080fd5b820183602082011115610acf57600080fd5b80359060200191846001830284011164010000000083111715610af157600080fd5b91908080601f016020809104026020016040519081016040528093929190818152602001838380828437600081840152601f19601f82011690508083019250505050505050919291929050505061218d565b6040518080602001828103825283818151815260200191508051906020019060200280838360005b83811015610b86578082015181840152602081019050610b6b565b505050509050019250505060405180910390f35b610cea60048036036040811015610bb057600080fd5b8101908080359060200190640100000000811115610bcd57600080fd5b820183602082011115610bdf57600080fd5b80359060200191846001830284011164010000000083111715610c0157600080fd5b91908080601f016020809104026020016040519081016040528093929190818152602001838380828437600081840152601f19601f82011690508083019250505050505050919291929080359060200190640100000000811115610c6457600080fd5b820183602082011115610c7657600080fd5b80359060200191846001830284011164010000000083111715610c9857600080fd5b91908080601f016020809104026020016040519081016040528093929190818152602001838380828437600081840152601f19601f820116905080830192505050505050509192919290505050612284565b6040518080602001828103825283818151815260200191508051906020019080838360005b83811015610d2a578082015181840152602081019050610d0f565b50505050905090810190601f168015610d575780820380516001836020036101000a031916815260200191505b509250505060405180910390f35b610da760048036036020811015610d7b57600080fd5b81019080803573ffffffffffffffffffffffffffffffffffffffff169060200190929190505050612559565b6040518080602001828103825283818151815260200191508051906020019080838360005b83811015610de7578082015181840152602081019050610dcc565b50505050905090810190601f168015610e145780820380516001836020036101000a031916815260200191505b509250505060405180910390f35b6060600b826040518082805190602001908083835b60208310610e5a5780518252602082019150602081019050602083039250610e37565b6001836020036101000a038019825116818451168082178552505050505050905001915050908152602001604051809103902060009054906101000a900460ff1615610edd576040518060400160405280600481526020017f74727565000000000000000000000000000000000000000000000000000000008152509050610f16565b6040518060400160405280600581526020017f66616c736500000000000000000000000000000000000000000000000000000081525090505b919050565b60011515600860003373ffffffffffffffffffffffffffffffffffffffff1673ffffffffffffffffffffffffffffffffffffffff16815260200190815260200160002060009054906101000a900460ff16151514610fc4576040517f08c379a000000000000000000000000000000000000000000000000000000000815260040180806020018281038252602f815260200180612816602f913960400191505060405180910390fd5b336001826040518082805190602001908083835b60208310610ffb5780518252602082019150602081019050602083039250610fd8565b6001836020036101000a038019825116818451168082178552505050505050905001915050908152602001604051809103902060006101000a81548173ffffffffffffffffffffffffffffffffffffffff021916908373ffffffffffffffffffffffffffffffffffffffff1602179055503373ffffffffffffffffffffffffffffffffffffffff167fd44cad3cdd419006c9f1ed0038d0743151290b6bf6168a5b374344aeb501c7a8826040518080602001828103825283818151815260200191508051906020019080838360005b838110156110e55780820151818401526020810190506110ca565b50505050905090810190601f1680156111125780820380516001836020036101000a031916815260200191505b509250505060405180910390a250565b60006001826040518082805190602001908083835b6020831061115a5780518252602082019150602081019050602083039250611137565b6001836020036101000a038019825116818451168082178552505050505050905001915050908152602001604051809103902060009054906101000a900473ffffffffffffffffffffffffffffffffffffffff169050919050565b6060600360008373ffffffffffffffffffffffffffffffffffffffff1673ffffffffffffffffffffffffffffffffffffffff1681526020019081526020016000208054600181600116156101000203166002900480601f01602080910402602001604051908101604052809291908181526020018280546001816001161561010002031660029004801561128a5780601f1061125f5761010080835404028352916020019161128a565b820191906000526020600020905b81548152906001019060200180831161126d57829003601f168201915b50505050509050919050565b606060008060006112a561263a565b60056000878152602001908152602001600020604051806080016040529081600082018054600181600116156101000203166002900480601f01602080910402602001604051908101604052809291908181526020018280546001816001161561010002031660029004801561135c5780601f106113315761010080835404028352916020019161135c565b820191906000526020600020905b81548152906001019060200180831161133f57829003601f168201915b50505050508152602001600182015481526020016002820160009054906101000a900473ffffffffffffffffffffffffffffffffffffffff1673ffffffffffffffffffffffffffffffffffffffff1673ffffffffffffffffffffffffffffffffffffffff1681526020016003820160009054906101000a900473ffffffffffffffffffffffffffffffffffffffff1673ffffffffffffffffffffffffffffffffffffffff1673ffffffffffffffffffffffffffffffffffffffff1681525050905080600001518160200151826040015183606001518393509450945094509450509193509193565b60001515600860003373ffffffffffffffffffffffffffffffffffffffff1673ffffffffffffffffffffffffffffffffffffffff16815260200190815260200160002060009054906101000a900460ff1615151461150a576040517f08c379a00000000000000000000000000000000000000000000000000000000081526004018080602001828103825260198152602001807f49737375657220616c726561647920726567697374657265640000000000000081525060200191505060405180910390fd5b80600260003373ffffffffffffffffffffffffffffffffffffffff1673ffffffffffffffffffffffffffffffffffffffff168152602001908152602001600020908051906020019061155d92919061268e565b506001600860003373ffffffffffffffffffffffffffffffffffffffff1673ffffffffffffffffffffffffffffffffffffffff16815260200190815260200160002060006101000a81548160ff0219169083151502179055503373ffffffffffffffffffffffffffffffffffffffff167fc0e782e5ce31b3a8ed34a04353667fa795030402831742c8a4b938c2c96ef033826040518080602001828103825283818151815260200191508051906020019080838360005b8381101561162f578082015181840152602081019050611614565b50505050905090810190601f16801561165c5780820380516001836020036101000a031916815260200191505b509250505060405180910390a250565b60005481565b6060600760008373ffffffffffffffffffffffffffffffffffffffff1673ffffffffffffffffffffffffffffffffffffffff1681526020019081526020016000208054806020026020016040519081016040528092919081815260200182805480156116fd57602002820191906000526020600020905b8154815260200190600101908083116116e9575b50505050509050919050565b6060600a826040518082805190602001908083835b60208310611741578051825260208201915060208101905060208303925061171e565b6001836020036101000a038019825116818451168082178552505050505050905001915050908152602001604051809103902060009054906101000a900460ff16156117c4576040518060400160405280600481526020017f747275650000000000000000000000000000000000000000000000000000000081525090506117fd565b6040518060400160405280600581526020017f66616c736500000000000000000000000000000000000000000000000000000081525090505b919050565b6060600660008373ffffffffffffffffffffffffffffffffffffffff1673ffffffffffffffffffffffffffffffffffffffff16815260200190815260200160002080548060200260200160405190810160405280929190818152602001828054801561188d57602002820191906000526020600020905b815481526020019060010190808311611879575b50505050509050919050565b60011515600860003373ffffffffffffffffffffffffffffffffffffffff1673ffffffffffffffffffffffffffffffffffffffff16815260200190815260200160002060009054906101000a900460ff16151514611942576040517f08c379a000000000000000000000000000000000000000000000000000000000815260040180806020018281038252602f815260200180612816602f913960400191505060405180910390fd5b60011515600960008473ffffffffffffffffffffffffffffffffffffffff1673ffffffffffffffffffffffffffffffffffffffff16815260200190815260200160002060009054906101000a900460ff161515146119eb576040517f08c379a00000000000000000000000000000000000000000000000000000000081526004018080602001828103825260338152602001806127e36033913960400191505060405180910390fd5b3373ffffffffffffffffffffffffffffffffffffffff166001826040518082805190602001908083835b60208310611a385780518252602082019150602081019050602083039250611a15565b6001836020036101000a038019825116818451168082178552505050505050905001915050908152602001604051809103902060009054906101000a900473ffffffffffffffffffffffffffffffffffffffff1673ffffffffffffffffffffffffffffffffffffffff1614611af8576040517f08c379a000000000000000000000000000000000000000000000000000000000815260040180806020018281038252602f8152602001806127b4602f913960400191505060405180910390fd5b611b0061263a565b6000806000815460010191905081905590508282600001819052504282602001818152505033826040019073ffffffffffffffffffffffffffffffffffffffff16908173ffffffffffffffffffffffffffffffffffffffff168152505083826060019073ffffffffffffffffffffffffffffffffffffffff16908173ffffffffffffffffffffffffffffffffffffffff168152505081600560008381526020019081526020016000206000820151816000019080519060200190611bc592919061270e565b506020820151816001015560408201518160020160006101000a81548173ffffffffffffffffffffffffffffffffffffffff021916908373ffffffffffffffffffffffffffffffffffffffff16021790555060608201518160030160006101000a81548173ffffffffffffffffffffffffffffffffffffffff021916908373ffffffffffffffffffffffffffffffffffffffff160217905550905050600660008573ffffffffffffffffffffffffffffffffffffffff1673ffffffffffffffffffffffffffffffffffffffff168152602001908152602001600020819080600181540180825580915050906001820390600052602060002001600090919290919091505550600760003373ffffffffffffffffffffffffffffffffffffffff1673ffffffffffffffffffffffffffffffffffffffff1681526020019081526020016000208190806001815401808255809150509060018203906000526020600020016000909192909190915055506004836040518082805190602001908083835b60208310611d695780518252602082019150602081019050602083039250611d46565b6001836020036101000a03801982511681845116808217855250505050505090500191505090815260200160405180910390208490806001815401808255809150509060018203906000526020600020016000909192909190916101000a81548173ffffffffffffffffffffffffffffffffffffffff021916908373ffffffffffffffffffffffffffffffffffffffff160217905550506001600b846040518082805190602001908083835b60208310611e385780518252602082019150602081019050602083039250611e15565b6001836020036101000a038019825116818451168082178552505050505050905001915050908152602001604051809103902060006101000a81548160ff0219169083151502179055508373ffffffffffffffffffffffffffffffffffffffff163373ffffffffffffffffffffffffffffffffffffffff16827fb16be250054d8205b809d26284c657602bbfc725cfc68daca4dc60a78ff137a760405160405180910390a450505050565b60001515600960003373ffffffffffffffffffffffffffffffffffffffff1673ffffffffffffffffffffffffffffffffffffffff16815260200190815260200160002060009054906101000a900460ff16151514611fa9576040517f08c379a000000000000000000000000000000000000000000000000000000000815260040180806020018281038252601c8152602001807f526563697069656e7420616c726561647920726567697374657265640000000081525060200191505060405180910390fd5b80600360003373ffffffffffffffffffffffffffffffffffffffff1673ffffffffffffffffffffffffffffffffffffffff1681526020019081526020016000209080519060200190611ffc92919061268e565b506001600960003373ffffffffffffffffffffffffffffffffffffffff1673ffffffffffffffffffffffffffffffffffffffff16815260200190815260200160002060006101000a81548160ff0219169083151502179055506001600a826040518082805190602001908083835b6020831061208d578051825260208201915060208101905060208303925061206a565b6001836020036101000a038019825116818451168082178552505050505050905001915050908152602001604051809103902060006101000a81548160ff0219169083151502179055503373ffffffffffffffffffffffffffffffffffffffff167f540051ab245198442259c711b2b55dddc858ac44be985b22fca4dba2d00572b0826040518080602001828103825283818151815260200191508051906020019080838360005b83811015612150578082015181840152602081019050612135565b50505050905090810190601f16801561217d5780820380516001836020036101000a031916815260200191505b509250505060405180910390a250565b60606004826040518082805190602001908083835b602083106121c557805182526020820191506020810190506020830392506121a2565b6001836020036101000a038019825116818451168082178552505050505050905001915050908152602001604051809103902080548060200260200160405190810160405280929190818152602001828054801561227857602002820191906000526020600020905b8160009054906101000a900473ffffffffffffffffffffffffffffffffffffffff1673ffffffffffffffffffffffffffffffffffffffff168152602001906001019080831161222e575b50505050509050919050565b606060008090505b6004836040518082805190602001908083835b602083106122c2578051825260208201915060208101905060208303925061229f565b6001836020036101000a03801982511681845116808217855250505050505090500191505090815260200160405180910390208054905081101561251957836040516020018082805190602001908083835b602083106123375780518252602082019150602081019050602083039250612314565b6001836020036101000a03801982511681845116808217855250505050505090500191505060405160208183030381529060405280519060200120600360006004866040518082805190602001908083835b602083106123ac5780518252602082019150602081019050602083039250612389565b6001836020036101000a038019825116818451168082178552505050505050905001915050908152602001604051809103902084815481106123ea57fe5b9060005260206000200160009054906101000a900473ffffffffffffffffffffffffffffffffffffffff1673ffffffffffffffffffffffffffffffffffffffff1673ffffffffffffffffffffffffffffffffffffffff16815260200190815260200160002060405160200180828054600181600116156101000203166002900480156124ad5780601f1061248b5761010080835404028352918201916124ad565b820191906000526020600020905b815481529060010190602001808311612499575b505091505060405160208183030381529060405280519060200120141561250c576040518060400160405280600481526020017f7472756500000000000000000000000000000000000000000000000000000000815250915050612553565b808060010191505061228c565b506040518060400160405280600581526020017f66616c736500000000000000000000000000000000000000000000000000000081525090505b92915050565b6060600260008373ffffffffffffffffffffffffffffffffffffffff1673ffffffffffffffffffffffffffffffffffffffff1681526020019081526020016000208054600181600116156101000203166002900480601f01602080910402602001604051908101604052809291908181526020018280546001816001161561010002031660029004801561262e5780601f106126035761010080835404028352916020019161262e565b820191906000526020600020905b81548152906001019060200180831161261157829003601f168201915b50505050509050919050565b60405180608001604052806060815260200160008152602001600073ffffffffffffffffffffffffffffffffffffffff168152602001600073ffffffffffffffffffffffffffffffffffffffff1681525090565b828054600181600116156101000203166002900490600052602060002090601f016020900481019282601f106126cf57805160ff19168380011785556126fd565b828001600101855582156126fd579182015b828111156126fc5782518255916020019190600101906126e1565b5b50905061270a919061278e565b5090565b828054600181600116156101000203166002900490600052602060002090601f016020900481019282601f1061274f57805160ff191683800117855561277d565b8280016001018555821561277d579182015b8281111561277c578251825591602001919060010190612761565b5b50905061278a919061278e565b5090565b6127b091905b808211156127ac576000816000905550600101612794565b5090565b9056fe497373756572206e6f74207265676973746572656420746f2069737375652074686973206365727469666963617465526563697069656e74206e6f74207265676973746572656420746f206265206973737565642061206365727469666963617465497373756572206e6f74207265676973746572656420746f2072656769737465722061206365727469666963617465a265627a7a72315820132c30225df520aaf557cacd5390aad890597e3ad7f8fbbeefb55753d60f842d64736f6c63430005100032",
  "source": "pragma solidity 0.5.16;\n\ncontract CertChain {\n    uint public certificate_counter;\n\n    // Structs\n    struct Certificate {\n        string ipfsHash;\n        uint timeOfIssue;\n        address issuer;\n        address recipient;\n    }\n\n    // Mappings\n    mapping(string => address) issuerOfCertificate;\n    mapping(address => string) issuer;\n    mapping(address => string) recipient;\n    mapping(string => address[]) allRecipientOfCertificate;\n    mapping(uint => Certificate) certificateIdentifier;\n    mapping(address => uint[]) recipientCertificates;\n    mapping(address => uint[]) issuerCertificates;\n    mapping(address => bool) isIssuer;\n    mapping(address => bool) isRecipient;\n    mapping(string => bool) recipients;\n    mapping(string => bool) Certificates;\n\n    // Events\n    event IssuerRegistered(address indexed issuer, string IPFS_hash);\n    event RecipientRegistered(address indexed recipient, string IPFS_hash);\n    event CertificateRegistered(address indexed issuer, string IPFS_hash);\n    event CertificateIssued(uint indexed certificate, address indexed issuer, address indexed recipient);\n\n    // Functions\n    function registerIssuer(string memory IPFS_hash) public {\n        require((isIssuer[msg.sender] == false), \"Issuer already registered\");\n        issuer[msg.sender] = IPFS_hash;\n        isIssuer[msg.sender] = true;\n        emit IssuerRegistered(msg.sender, IPFS_hash);\n    }\n\n    function registerRecipient(string memory IPFS_hash) public {\n        require(isRecipient[msg.sender] == false, \"Recipient already registered\");\n        recipient[msg.sender] = IPFS_hash;\n        isRecipient[msg.sender] = true;\n\n        recipients[IPFS_hash] = true;\n        emit RecipientRegistered(msg.sender, IPFS_hash);\n    }\n\n    function registerCertificate(string memory IPFS_hash) public {\n        require(isIssuer[msg.sender] == true, \"Issuer not registered to register a certificate\");\n        issuerOfCertificate[IPFS_hash] = msg.sender;\n        emit CertificateRegistered(msg.sender, IPFS_hash);\n    }\n\n    function issueCertificate(address _recipient, string memory certificate_hash) public {\n        require(isIssuer[msg.sender] == true, \"Issuer not registered to register a certificate\");\n        require(isRecipient[_recipient] == true, \"Recipient not registered to be issued a certificate\");\n        require(issuerOfCertificate[certificate_hash] == msg.sender, \"Issuer not registered to issue this certificate\");\n        Certificate memory cert;\n        uint id = ++certificate_counter;\n        cert.ipfsHash = certificate_hash;\n        cert.timeOfIssue = now;\n        cert.issuer = msg.sender;\n        cert.recipient = _recipient;\n        certificateIdentifier[id] = cert;\n        recipientCertificates[_recipient].push(id);\n        issuerCertificates[msg.sender].push(id);\n        allRecipientOfCertificate[certificate_hash].push(_recipient);\n\n        Certificates[certificate_hash] = true;\n        emit CertificateIssued(id, msg.sender, _recipient);\n    }\n\n    function getIssuerOfCertificate(string memory IPFS_hash) public view returns (address) {\n        return issuerOfCertificate[IPFS_hash];\n    }\n\n    function getIssuer(address _issuer) public view returns (string memory) {\n        return issuer[_issuer];\n    }\n\n    function getRecipient(address _recipient) public view returns (string memory) {\n        return recipient[_recipient];\n    }\n\n    function getAllRecipientOfCertificate(string memory IPFS_hash) public view returns (address[] memory) {\n        return allRecipientOfCertificate[IPFS_hash];\n    }\n\n    function getRecipientCertificates(address _recipient) public view returns (uint[] memory) {\n        return recipientCertificates[_recipient];\n    }\n\n    function getIssuerCertificates(address _issuer) public view returns (uint[] memory) {\n        return issuerCertificates[_issuer];\n    }\n\n    function getCertificateIdentifier(uint _id) public view returns (string memory, uint, address, address){\n        Certificate memory cert = certificateIdentifier[_id];\n        return (cert.ipfsHash, cert.timeOfIssue, cert.issuer, cert.recipient);\n    }\n\n    function checkValidCertificate(string memory IPFS_hash) public view returns(string memory){\n        if(Certificates[IPFS_hash]){\n            return \"true\";\n        }\n        return \"false\";\n    }\n\n    function FindRecipient(string memory IPFS_hash) public view returns(string memory){\n        if(recipients[IPFS_hash]){\n            return \"true\";\n        }\n        return \"false\";\n    }\n\n    function checkValidCombo(string memory IPFS_hash,string memory certificate_hash) public view returns(string memory){\n        for(uint i = 0; i < allRecipientOfCertificate[certificate_hash].length; i++){\n            if(keccak256(abi.encodePacked((recipient[allRecipientOfCertificate[certificate_hash][i]]))) == keccak256(abi.encodePacked((IPFS_hash)))){\n                return \"true\";\n            }\n        }\n        return \"false\";\n    }\n\n}",
  "sourcePath": "/home/aastha/Downloads/CertChain-final/CertChain/contracts/CertChain.sol",
  "compiler": {
    "name": "solc",
    "version": "0.5.16+commit.9c3226ce.Emscripten.clang"
  },
  "schemaVersion": "3.3.1",
  "updatedAt": "2020-11-03T12:32:58.602Z",
  "networkType": "ethereum",
  "devdoc": {
    "methods": {}
  },
  "userdoc": {
    "methods": {}
  }
}